:100000000C9465000C948D000C948D000C94FA02F5
:100010000C945D030C94CA030C948D000C948D0019
:100020000C948D000C948D000C948D000C948D001C
:100030000C948D000C948D000C948D000C948D000C
:100040000C9414040C948D000C9408070C943A073B
:100050000C948D000C948D000C948D000C948D00EC
:100060000C948D000C948D003B005800000000089B
:10007000000201000003040700000000000000006F
:10008000010204081020408001020408102001022F
:1000900004081020040404040404040402020202FC
:1000A00002020303030303030000000023002600F1
:1000B000290000000000250028002B00000000009F
:1000C000240027002A0006016A0711241FBECFEF73
:1000D000D8E0DEBFCDBF11E0A0E0B1E0E2E2F2E1A6
:1000E00002C005900D92A835B107D9F722E0A8E526
:1000F000B1E001C01D92A232B207E1F710E0CAECF4
:10010000D0E004C02297FE010E940B09C63CD10733
:10011000C9F70E94D7080C940F090C9400008CE5D5
:1001200091E00C940A0226E040E855E260E070E0BD
:1001300085E891E00E94A60668E271E085E891E01A
:100140000E942B086FE870E08CE591E00E94180196
:100150006FE271E085E891E00C942B08CF92DF927A
:10016000EF92FF9280915E018823E1F06AE670E0F1
:1001700085E891E00E94EB0740915F01509160019A
:1001800060916101709162012AE030E085E891E0C0
:100190000E948C0868E670E085E891E00E941908EA
:1001A00010925E01C0905801D0905901E0905A0120
:1001B000F0905B010E945E04C61AD70AE80AF90AA9
:1001C00089EEC81683E0D806E104F104A8F00E9485
:1001D0005E04609358017093590180935A01909383
:1001E0005B0168EE73E08CE591E00E948402682F69
:1001F0008CE591E00E94AF0261E070E080E090E069
:10020000FF90EF90DF90CF900C948D0422E130E0CE
:1002100045E050E064E070E08CE591E00C94100162
:10022000FC0150874783728761873487238708954D
:10023000CF92DF92FF920F931F93CF93DF931F9282
:10024000CDB7DEB78C016B01FC01818592858631CB
:10025000910560F4883091050CF4D7C08E3091057B
:100260000CF4D5C08E5098E0980F01C09FEFF92E86
:10027000F694F694F69479F599830E94DB029981BD
:10028000911105C0D0920B01C0920A0194C0913027
:1002900029F4D0920901C09208018DC0923029F44E
:1002A000D0920701C092060186C0933029F4D09203
:1002B0000501C09204017FC0943029F4D09203015B
:1002C000C092020178C0953009F075C0D09201014A
:1002D000C092000170C0F1E0FF122FC099830E940C
:1002E0003E039981983029F4D0921701C0921601EB
:1002F00062C0993029F4D0921501C09214015BC0FC
:100300009A3029F4D0921301C092120154C09B304C
:1003100029F4D0921101C09210014DC09C3029F4F3
:10032000D0920F01C0920E0146C09D3009F043C02B
:10033000D0920D01C0920C013EC082E0F8124DC077
:1003400099830E94A1039981903129F4D0922701C9
:10035000C092260130C0913129F4D0922501C0927B
:10036000240129C0923129F4D0922301C0922201A4
:1003700022C0933129F4D0922101C09220011BC0E8
:10038000943129F4D0921F01C0921E0114C09531FE
:1003900029F4D0921D01C0921C010DC0963129F4A0
:1003A000D0921B01C0921A0106C0973121F4D0925D
:1003B0001901C0921801977061E070E001C0660FEA
:1003C0009A95EAF7EF2DF0E0ED58FE4F8081862BED
:1003D00080834F2D8F2D0E94B80260E0F801878145
:1003E0000E942B0561E0F80183850E942B05F8012E
:1003F0001182108281E082830F90DF91CF911F9153
:100400000F91FF90DF90CF90089590E12DCF88500D
:1004100090E02ACFCF92DF92EF92FF920F931F933B
:10042000CF93DF93EC01F8940E945E040B891C8942
:100430002D893E896B017C01C01AD10AE20AF30AB8
:100440009701860101351105210531050CF452C0D3
:100450002D853E8527313105ACF00F851889298916
:100460003A890B831C832D833E8321E02A831F86D8
:10047000188A198A1A8A6B8B7C8B8D8B9E8B1E86B1
:100480001D8638C08F810E949A05ED85FE850197F3
:1004900071F5E431F105CCF401E010E020E030E04A
:1004A0000E2E04C0000F111F221F331F0A94D2F713
:1004B0004F85588969897A89402B512B622B732B80
:1004C0004F87588B698B7A8B12C0E431F10579F430
:1004D0008F859889A989BA89B095A09590958195BD
:1004E0009F4FAF4FBF4F8F87988BA98BBA8B319699
:1004F000FE87ED877894DF91CF911F910F91FF9048
:10050000EF90DF90CF900895CF92DF92EF92FF921D
:100510000F931F93CF93DF93EC018B010E945E0436
:10052000CB88DC88ED88FE886C197D098E099F09CF
:10053000222717FD2095322F601771078207930736
:100540001CF0188280E002C081E08883DF91CF91A7
:100550001F910F91FF90EF90DF90CF900895662349
:1005600011F061E001C060E082E10C94640508953F
:10057000813039F020F0823051F499B103C093B149
:1005800001C096B1E42FF0E0E758FE4F9083E82FCA
:10059000F0E0E559FF4F9081962B90839091680091
:1005A00021E030E0082E01C0220F0A94EAF7922BD6
:1005B0009093680008950895E0910A01F0910B016D
:1005C0000994E0910801F09109010994E091060174
:1005D000F09107010994E0910401F091050109945B
:1005E000E0910201F09103010994E0910001F09182
:1005F000010109941F920F920FB60F9211242F93AD
:100600003F934F935F936F937F938F939F93AF939A
:10061000BF93CF93EF93FF9383B120917901C09162
:100620007601C223909173019823C92B2827C223F6
:1006300080937901C0FD0E94DC02C1FD0E94E102AD
:10064000C2FD0E94E602C3FD0E94EB02C4FD0E94AF
:10065000F002C5FD0E94F502FF91EF91CF91BF918D
:10066000AF919F918F917F916F915F914F913F914A
:100670002F910F900FBE0F901F9018950895E09145
:100680001601F09117010994E0911401F091150100
:100690000994E0911201F09113010994E091100185
:1006A000F09111010994E0910E01F0910F0109946C
:1006B000E0910C01F0910D0109941F920F920FB679
:1006C0000F9211242F933F934F935F936F937F93D8
:1006D0008F939F93AF93BF93CF93EF93FF9386B185
:1006E00020917A01C0917701C223909174019823DF
:1006F000C92B2827C22380937A01C0FD0E943F03A3
:10070000C1FD0E944403C2FD0E944903C3FD0E9433
:100710004E03C4FD0E945303C5FD0E945803FF9180
:10072000EF91CF91BF91AF919F918F917F916F91F9
:100730005F914F913F912F910F900FBE0F901F909F
:1007400018950895E0912601F09127010994E09110
:100750002401F09125010994E0912201F0912301F7
:100760000994E0912001F09121010994E0911E018A
:10077000F0911F010994E0911C01F0911D01099471
:10078000E0911A01F0911B010994E0911801F09198
:10079000190109941F920F920FB60F9211242F93F3
:1007A0003F934F935F936F937F938F939F93AF93F9
:1007B000BF93CF93EF93FF9389B120917B01C091B9
:1007C0007801C223909175019823C92B2827C22351
:1007D00080937B01C4FD0E94B603C5FD0E94BB034C
:1007E000C6FD0E94C003C7FD0E94C503C0FD0E9454
:1007F000A203C1FD0E94A703C2FD0E94AC03C3FD7A
:100800000E94B103FF91EF91CF91BF91AF919F9162
:100810008F917F916F915F914F913F912F910F90A9
:100820000FBE0F901F9018951F920F920FB60F9248
:1008300011242F933F938F939F93AF93BF938091F6
:100840007D0190917E01A0917F01B0918001309156
:100850007C0123E0230F2D3720F40196A11DB11D4B
:1008600005C026E8230F0296A11DB11D20937C012F
:1008700080937D0190937E01A0937F01B0938001CE
:100880008091810190918201A0918301B0918401B6
:100890000196A11DB11D8093810190938201A093C7
:1008A0008301B0938401BF91AF919F918F913F914C
:1008B0002F910F900FBE0F901F9018952FB7F8949F
:1008C00060917D0170917E0180917F019091800106
:1008D0002FBF08953FB7F8948091810190918201D4
:1008E000A0918301B091840126B5A89B05C02F3F3C
:1008F00019F00196A11DB11D3FBF6627782F892FE2
:100900009A2F620F711D811D911D42E0660F771FA6
:10091000881F991F4A95D1F708958F929F92AF92A1
:10092000BF92CF92DF92EF92FF926B017C010E9407
:100930006A044B015C01C114D104E104F104F1F03B
:100940000E94E6080E946A04681979098A099B09CD
:10095000683E73408105910570F321E0C21AD10809
:10096000E108F10888EE880E83E0981EA11CB11CF6
:10097000C114D104E104F10429F7DDCFFF90EF9019
:10098000DF90CF90BF90AF909F908F900895789414
:1009900084B5826084BD84B5816084BD85B5826084
:1009A00085BD85B5816085BDEEE6F0E08081816022
:1009B0008083E1E8F0E01082808182608083808122
:1009C00081608083E0E8F0E0808181608083E1EBFA
:1009D000F0E0808184608083E0EBF0E080818160E2
:1009E0008083EAE7F0E08081846080838081826098
:1009F0008083808181608083808180688083109281
:100A0000C1000895833081F028F4813099F082305C
:100A1000A1F008958730A9F08830B9F08430D1F47E
:100A2000809180008F7D03C0809180008F778093BC
:100A30008000089584B58F7702C084B58F7D84BD12
:100A400008958091B0008F7703C08091B0008F7DB2
:100A50008093B0000895CF93DF9390E0FC01E058BD
:100A6000FF4F2491FC01EC56FF4F8491882349F1FC
:100A700090E0880F991FFC01E454FF4FA591B491B9
:100A80008E549F4FFC01C591D4919FB7611108C04E
:100A9000F8948C91209582238C93888182230AC0BC
:100AA000623051F4F8948C91322F309583238C93DB
:100AB0008881822B888304C0F8948C91822B8C933C
:100AC0009FBFDF91CF9108950F931F93CF93DF9333
:100AD0001F92CDB7DEB7282F30E0F901E459FF4F60
:100AE0008491F901E058FF4F1491F901EC56FF4F42
:100AF00004910023C9F0882321F069830E94020534
:100B00006981E02FF0E0EE0FFF1FEE54FF4FA5913B
:100B1000B4919FB7F8948C91611103C01095812313
:100B200001C0812B8C939FBF0F90DF91CF911F91BC
:100B30000F910895CF93DF93282F30E0F901E45906
:100B4000FF4F8491F901E058FF4FD491F901EC5621
:100B5000FF4FC491CC2391F081110E940205EC2F2C
:100B6000F0E0EE0FFF1FE855FF4FA591B4912C91D7
:100B70002D2381E090E021F480E002C080E090E04D
:100B8000DF91CF910895FC01818D228D90E0805CF2
:100B90009F4F821B91098F7399270895FC01918DB6
:100BA000828D981731F0828DE80FF11D858D90E0D0
:100BB00008958FEF9FEF0895FC01918D828D981716
:100BC00061F0828DDF01A80FB11D5D968C91928D31
:100BD0009F5F9F73928F90E008958FEF9FEF08952E
:100BE00080E697E0892B49F080E090E0892B29F09E
:100BF0000E94600781110C9400000895FC01848D0F
:100C0000DF01A80FB11DA35ABF4F2C91848D90E036
:100C100001968F739927848FA689B7892C93A08911
:100C2000B1898C9180648C93938D848D981306C0C8
:100C30000288F389E02D80818F7D80830895CF9392
:100C4000DF93EC01888D8823C9F0EA89FB898081D4
:100C500085FD05C0A889B9898C9186FD0FC00FB6A6
:100C600007FCF5CF808185FFF2CFA889B9898C91E7
:100C700085FFEDCFCE010E94FE05E7CFDF91CF913A
:100C80000895CF92DF92FF920F931F93CF93DF933C
:100C90001F92CDB7DEB76C0181E0D60158968C93D8
:100CA00058975B969C915B975C968C915C97981398
:100CB00007C05096ED91FC915197808185FD2EC023
:100CC000F601038D10E00F5F1F4F0F731127F02EF9
:100CD000F601848DF81211C00FB607FCF9CFD601CA
:100CE0005096ED91FC915197808185FFF1CFC6011F
:100CF00069830E94FE056981EBCF838DE80FF11DAA
:100D0000E35AFF4F6083D6015B960C935B97529634
:100D1000ED91FC915397808180620CC0D60156966C
:100D2000ED91FC91579760835096ED91FC9151970E
:100D300080818064808381E090E00F90DF91CF918B
:100D40001F910F91FF90DF90CF900895BF92CF92A7
:100D5000DF92EF92FF92CF93DF93EC016A017B0168
:100D6000B22EE889F98982E08083411581EE580727
:100D700061057105A1F060E079E08DE390E0A701E5
:100D800096010E94E7082150310941095109569501
:100D9000479537952795211580E1380798F0E88920
:100DA000F989108260E874E88EE190E0A70196016D
:100DB0000E94E7082150310941095109569547958C
:100DC00037952795EC85FD853083EE85FF8520835B
:100DD000188EEC89FD89B082EA89FB898081806167
:100DE0008083EA89FB89808188608083EA89FB8926
:100DF000808180688083EA89FB8980818F7D808300
:100E0000DF91CF91FF90EF90DF90CF90BF9008954A
:100E10001F920F920FB60F9211242F938F939F93CF
:100E2000EF93FF93E0919501F09196018081E0911D
:100E30009B01F0919C0182FD12C0908180919E01E6
:100E40008F5F8F7320919F01821751F0E0919E0177
:100E5000F0E0EB57FE4F958F80939E0101C080819B
:100E6000FF91EF919F918F912F910F900FBE0F9057
:100E70001F9018951F920F920FB60F9211242F9367
:100E80003F934F935F936F937F938F939F93AF9312
:100E9000BF93EF93FF9385E891E00E94FE05FF91D9
:100EA000EF91BF91AF919F918F917F916F915F91E2
:100EB0004F913F912F910F900FBE0F901F9018955B
:100EC00085E891E00E94C30521E0892B09F420E028
:100ED000822F0895109288011092870188EE93E086
:100EE000A0E0B0E08093890190938A01A0938B01E8
:100EF000B0938C018AE391E0909386018093850101
:100F000085EC90E0909392018093910184EC90E0C5
:100F1000909394018093930180EC90E090939601DC
:100F20008093950181EC90E09093980180939701D4
:100F300082EC90E090939A018093990186EC90E086
:100F400090939C0180939B0110929E0110929F01AF
:100F50001092A0011092A1010895CF92DF92EF921A
:100F6000FF920F931F93CF93DF937C016A01EB01F4
:100F700000E010E00C151D0571F06991D701ED91AD
:100F8000FC910190F081E02DC7010995892B19F0A2
:100F90000F5F1F4FEFCFC801DF91CF911F910F91CE
:100FA000FF90EF90DF90CF9008956115710581F06B
:100FB000DB010D900020E9F7AD0141505109461BBE
:100FC000570BDC01ED91FC910280F381E02D099437
:100FD00080E090E00895EF92FF920F931F93CF93DC
:100FE000DF938C017B01C0E0D0E0F701EC0FFD1F27
:100FF0006491662359F0F801A081B181ED91FC91D3
:10100000C8010995892B11F02196EFCFCE01DF9110
:10101000CF911F910F91FF90EF900895DC01ED911A
:10102000FC910190F081E02D099466E471E00C944C
:10103000D5070F931F93CF93DF93EC010E94EB072B
:101040008C01CE010E941508800F911FDF91CF9176
:101050001F910F9108950F931F93CF93DF93EC018E
:101060000E94D5078C01CE010E941508800F911FA8
:10107000DF91CF911F910F9108958F929F92AF9220
:10108000BF92DF92EF92FF920F931F93CF93DF9364
:10109000CDB7DEB7A1970FB6F894DEBF0FBECDBFB8
:1010A0007C01F42FD52ECB0119A2223008F42AE0BE
:1010B0008E010F5D1F4F822E912CA12CB12C6F2F12
:1010C0007D2DA50194010E94E708F22FD32ECA01BD
:1010D000015011096A3014F4E0E301C0E7E3E60FC0
:1010E000D801EC93232B242B252B49F7B801C701FA
:1010F0000E94D507A1960FB6F894DEBF0FBECDBFF4
:10110000DF91CF911F910F91FF90EF90DF90BF90F3
:10111000AF909F908F900895CF92DF92EF92FF92C1
:101120000F931F93CF93DF93EC016A017B0121158D
:10113000310579F4E881F9810190F081E02D642F87
:10114000DF91CF911F910F91FF90EF90DF90CF90A3
:1011500009942A303105E9F477FF1AC06DE20E9444
:101160000E088C0144275527BA014C195D096E09F8
:101170007F092AE0CE010E943D08800F911FDF9178
:10118000CF911F910F91FF90EF90DF90CF90089536
:101190002AE0B701A601CE01DF91CF911F910F91F7
:1011A000FF90EF90DF90CF900C943D0808950E943F
:1011B000C7040E94D6080E949300C0EFD5E00E94A9
:1011C000AE002097E1F30E94F005F9CF0895A1E267
:1011D0001A2EAA1BBB1BFD010DC0AA1FBB1FEE1FB1
:1011E000FF1FA217B307E407F50720F0A21BB30BFC
:1011F000E40BF50B661F771F881F991F1A9469F778
:1012000060957095809590959B01AC01BD01CF01D3
:101210000895EE0FFF1F0590F491E02D0994F894C6
:02122000FFCFFE
:10122200B702B702B702B702B702B702B702B702F4
:10123200B702B702B702B702B702B702B702B702E4
:10124200B702B702B702B7025374617274650049FC
:101252006E6974207800000000004106AD07C305E6
:10126200DC05CE051F060D0A006E616E00696E6612
:08127200006F7666002E0000FB
:00000001FF
